:020000040800F2
:10000000400600200101000811050008DD04000879
:100010000D050008C5010008E312000800000000FB
:10002000000000000000000000000000C1080008FF
:100030009D0300080000000099050008910A0008CF
:100040001B0100081B0100081B0100081B01000820
:100050001B0100081B0100081B0100081B01000810
:100060001B0100081B0100081B0100081B01000800
:100070001B0100081B0100081B0100081B010008F0
:100080001B0100081B0100081B0100081B010008E0
:100090001B0100081B0100081B0100081B010008D0
:1000A0001B0100081B0100081B0100081B010008C0
:1000B0001B0100081B0100081B0100081B010008B0
:1000C0001B0100081B0100081B0100081B010008A0
:1000D0001B010008150C0008890D00081B01000811
:1000E0001B0100081B0100081B010008DFF80CD0F1
:1000F00000F056F800480047D915000840060020D7
:100100000648804706480047FEE7FEE7FEE7FEE7B1
:10011000FEE7FEE7FEE7FEE7FEE7FEE7C10A0008AE
:10012000ED00000800487047C416000840EA0103CB
:100130009B0703D009E008C9121F08C0042AFAD29D
:1001400003E011F8013B00F8013B521EF9D2704761
:10015000D2B201E000F8012B491EFBD27047002209
:10016000F6E710B513460A4604461946FFF7F0FFB6
:10017000204610BD421C10F8011B0029FBD1801A3B
:10018000704710B5002200E0521C835C8C5CA342D7
:1001900001D1002BF8D1D8B2E1B2401A10BD000055
:1001A000064C074D06E0E06840F0010394E80700C4
:1001B00098471034AC42F6D3FFF79CFFD0160008E6
:1001C000F016000800BFFEE701460020002281B1C2
:1001D0000B6873B1074B1B6813B9064B196007E036
:1001E000044B1A6800E092689368002BFBD1916081
:1001F0000120704708000020F0B591B006460025A8
:1002000000242848076800BF03E000204DF82500BF
:100210006D1C102DF9DB00E0761C307840B1FFF743
:1002200081FF00683178405C00F0BA000028F3D00C
:1002300001250096344620E000E0641C207840B19F
:10024000FFF770FF00682178405C00F0BA000028DA
:10025000F3D102E000202070641C207840B1FFF749
:1002600061FF00682178405C00F0BA000028F1D0FE
:10027000207810B14DF825406D1C207808B1102D64
:10028000DADB00204DF8250007E0002D04DD69468B
:1002900028467A68904702E0BF68002FF5D100BF7A
:1002A00011B0F0BD0800002010B50348FFF78CFF27
:1002B00002A001F019F810BD10000020436F6D6D11
:1002C000616E6420496E69742E0D0A0010B50446F3
:1002D000204600F069F909490870084600780128AD
:1002E00002D0022802D100E001E000E000BF00BF20
:1002F00002480178052000F038FF10BD2C000020D6
:1003000010B50446204600F048F904490870084634
:100310000178042000F010FF10BD00002B00002029
:1003200010B50446204600F03FF90B490870084616
:100330000078012804D0022803D0032803D101E06B
:1003400002E001E000E000BF00BF034801780320A5
:1003500000F00BFF10BD00002A00002010B504467D
:10036000204600F01AF90449087008460178022076
:1003700000F0E2FE10BD00002900002010B5044688
:10038000204600F00AF90449087008460178012067
:1003900000F0D2FE10BD00002800002070472DE9BB
:1003A000F0410246002500260020002300240027FB
:1003B00091F803C00CF00F0591F803C00CF0100C7D
:1003C000BCF1000F03D091F802C04CEA050591F88A
:1003D00000C0BCF1000F31D0146800202BE04FF0BA
:1003E000010C0CFA00F3B1F800C00CEA03069E42BF
:1003F00020D183004FF00F0C0CFA03F7BC4305FA31
:1004000003FC4CEA040491F803C0BCF1280F06D1A8
:100410004FF0010C0CFA00FCC2F814C00AE091F88D
:1004200003C0BCF1480F05D14FF0010C0CFA00FCE1
:10043000C2F810C0401C0828D1D31460B1F800C025
:10044000BCF1FF0F34DD546800202EE000F1080CF1
:100450004FF0010808FA0CF3B1F800C00CEA0306EB
:100460009E4221D183004FF00F0C0CFA03F7BC43DE
:1004700005FA03FC4CEA040491F803C0BCF1280F10
:1004800005D100F1080C08FA0CF8C2F8148091F8B4
:1004900003C0BCF1480F07D100F1080C4FF0010870
:1004A00008FA0CF8C2F81080401C0828CED354601B
:1004B000BDE8F08101460522002000BF07E0064BA1
:1004C00013F810308B4200D103E0431CD8B29042A5
:1004D000F5DB00BF704700003816000800BFFEE7DC
:1004E00008B50121102000F04BF94FF40050ADF891
:1004F000000003208DF8020010208DF803006946EB
:100500000148FFF74CFF08BD0010014000BFFEE7A7
:100510007047000070B5002100230F22C47804B397
:10052000154C246804F4E064C4F5E064210AC1F1C8
:100530000403CA40447804FA03F184781440214348
:1005400009010E4C0678A155047804F01F0501241A
:10055000AC4005786D11AD0005F1E025C5F800410E
:1005600009E0047804F01F050124AC40044D06782E
:10057000761145F8264070BD0CED00E000E400E087
:1005800080E100E002490143024A11607047000027
:100590000000FA050CED00E070470146087808B14C
:1005A000012070470020FCE7024600211178090273
:1005B000507801430902907801430902D078014341
:1005C000C8B2704770B504460D461646062C18D2C0
:1005D000DFE804F01703070B0F132846FFF7CEFEE2
:1005E00010E02846FFF7BAFE0CE02846FFF798FE19
:1005F00008E02846FFF784FE04E02846FFF766FE81
:1006000000E000BF00BF70BD2DE9F05F05460E465B
:100610004FF0000A0027B846BB46B946002425B96A
:1006200000BF00BF0120BDE8F09F002435E015F8B1
:1006300004A0601C15F80080E01C295CA01C285C4C
:1006400041EA002000F0FF095046FFF733FF07465C
:10065000144800EB47004078404506D1201D29187A
:100660004A465046FFF7AEFF13E0B8F1020F0CD137
:100670000C4800EB47004078042806D1201D2918BB
:100680004A465046FFF79EFF03E04FF0010B00BFC4
:1006900000BF09F104002044C4B2B442C7DB58468D
:1006A000C1E700003816000870B504460025002692
:1006B0001CB900BF00BF012070BDE578042D2BD010
:1006C00007DC7DB1012D42D0022D10D0032D43D186
:1006D00012E0052D26D0062D27D0082D17D02B2D62
:1006E0003AD12EE000BF00BF00F092FD35E000BF20
:1006F00000BF00F05FFD30E000BF00BFA07900F058
:100700005BF900221146032000F05AFC25E000BFEF
:1007100000BF00F0AFF820E000BF00BF012000F0F4
:10072000D1F81AE000BF00BF17E000BF00BF60793A
:10073000217940EA0120C6B23146A01DFFF764FFCF
:100740000BE000BF00BFA07900F036F905E000BF64
:1007500000BF00F079FD00E000BF00BF0020ABE764
:1007600029B1064AD2690243044BDA6104E0034A24
:10077000D2698243014BDA617047000000100240E9
:1007800029B1064A92690243044B9A6104E0034A84
:1007900092698243014B9A61704700000010024049
:1007A00030B500210022002400232D4D6D6805F096
:1007B0000C0121B1042905D0082923D105E0294DD8
:1007C000056022E0274D05601FE0254D6D6805F4AA
:1007D0007012234D6D6805F48034022505EB9242BA
:1007E0001CB9214D554305600BE01D4D6D6805F4A6
:1007F00000351DB11C4D5543056002E0194D5543B0
:10080000056002E0174D056000BF00BF144D6D6824
:1008100005F0F0010909154D6B5C0568DD40456088
:100820000F4D6D6805F4E061090A104D6B5C456879
:10083000DD4085600A4D6D6805F46051C90A0B4DB5
:100840006B5C4568DD40C560054D6D6805F4404151
:10085000890B074D6B5CC568B5FBF3F5056130BDD1
:100860000010024000127A0000093D002E00002016
:100870003E00002010B50D480178012000F05CFC1E
:100880000B480178022000F057FC0A480178032049
:1008900000F06BFC08480178042000F04DFC07488C
:1008A0000178052000F061FC10BD00002800002048
:1008B000290000202A0000202B0000202C0000200E
:1008C0007047000001490870704700001D000020BB
:1008D00010B500F001F810BD0CB50020019000909B
:1008E0003348006840F480303149086000BF304828
:1008F000006800F4003000900198401C01900098BE
:1009000018B90198B0F5A06FF1D12948006800F43A
:10091000003010B10120009001E00020009000980C
:10092000012843D12348006840F0100021490860A5
:100930000846006820F0070008600846006840F09C
:10094000020008601A484068194948600846406833
:1009500048600846406840F4806048600846406847
:1009600020F47C1048600846406840F4E810486075
:100970000846006840F08070086000BF0C480068BE
:1009800000F000700028F9D00948406820F003000A
:10099000074948600846406840F00200486000BFD0
:1009A0000348406800F00C000828F9D10CBD000095
:1009B0000010024000200240114908700978072900
:1009C0001AD2DFE801F004070A0D1013160000BF69
:1009D00000BF12E000BF00BF0FE000BF00BF0CE08F
:1009E00000BF00BF09E000BF00BF06E000BF00BFBE
:1009F00003E000BF00BF00E000BF00BF7047000081
:100A00001C000020042808D14FF0E021096941F0C2
:100A100004014FF0E022116107E04FF0E021096985
:100A200021F004014FF0E02211617047012808D144
:100A30004FF0E021096941F001014FF0E02211611E
:100A40000EE0811C41B94FF0E021096921F001015C
:100A50004FF0E022116103E000214FF0E0229161AC
:100A6000704710B50146002200230020CB10022B56
:100A700003D14FF0E024226902E04FF0E024E26964
:100A800001248C4014400CB1012000E0002010BD76
:100A9000704740B14FF0E021096941F002014FF089
:100AA000E022116107E04FF0E021096921F0020125
:100AB0004FF0E022116170474FF0E021486170472C
:100AC00010B51348006840F001001149086008465D
:100AD0004068104908400E494860084600680E49C1
:100AE00008400B4908600846006820F48020086030
:100AF0000846406820F4FE0048604FF41F008860FC
:100B0000FFF7E6FE4FF000600449086010BD0000EA
:100B1000001002400000FFF8FFFFF6FE08ED00E0C5
:100B200000200B4909680B4A126891420FD009490D
:100B30000A6809498A4202D36439064A11600549A4
:100B40000968087803490968491C024A116070471E
:100B500020000020240000207401002000B587B090
:100B6000012144F20400FFF70BFE4FF40070ADF8D2
:100B7000180018208DF81B0003208DF81A0006A914
:100B80002248FFF70CFC4FF48060ADF818000420F9
:100B90008DF81B0003208DF81A0006A91B48FFF7EB
:100BA000FEFB4FF4E13002900020ADF80C00ADF8F0
:100BB0000E00ADF81000ADF814000C20ADF81200D6
:100BC00002A9134800F078F90121114800F00CF94E
:100BD000012240F225510E4800F049F940210C480D
:100BE00000F0EAF84FF4C060FFF7CCFC25208DF848
:100BF000040000208DF8050001208DF806008DF816
:100C0000070001A8FFF786FC07B000BD00080140FF
:100C10000038014010B540F225511B4800F0FDF8A6
:100C2000002830D0184800F0B3F91849184A128843
:100C30008854084616490988405C0A2805D014489B
:100C40000088401C1249088011E000200F49104A1A
:100C5000128888540FA000F047FB0C48FFF7CCFA2D
:100C6000C8210A48FFF77BFA002009490880084894
:100C70000088C82802DB00200549088040F2255181
:100C8000014800F0A2F810BD0038014048000020E3
:100C90000C00002025730D0A0000000070B5054609
:100CA0000E4600240CE0295D074800F076F900BFED
:100CB0008021054800F0A4F80028F9D0601CC4B2D7
:100CC000B442F0DB70BD00000044004000B587B0C6
:100CD00001210420FFF754FD01214804FFF740FDE6
:100CE0000420ADF8180018208DF81B0003208DF8A3
:100CF0001A0006A92248FFF752FB0820ADF8180099
:100D000004208DF81B0003208DF81A0006A91C484A
:100D1000FFF745FB4FF4165002900020ADF80C0091
:100D2000ADF80E00ADF81000ADF814000C20ADF8D1
:100D3000120002A9134800F0BFF80121114800F089
:100D400053F8012240F225510E4800F090F840215E
:100D50000C4800F031F84FF4C060FFF713FC262078
:100D60008DF8040000208DF805008DF806000120A4
:100D70008DF8070001A8FFF7CDFB07B000BD00000C
:100D8000000801400044004010B5002440F2255105
:100D9000084800F042F858B1064800F0F9F8C4B22B
:100DA000204600F00FFA40F22551024800F00DF8FD
:100DB00010BD00000044004001F40072B2F5007F55
:100DC00000D100BFCA430280704710B50022002343
:100DD00040F66A14A14200D100BF0A1201249440D7
:100DE000A3B2DC43048010BD21B1828942F40052D9
:100DF000828104E082894DF6FF731A408281704738
:100E000002460020B1F5007F00D100BF13880B40DF
:100E10000BB1012000E00020704770B502460024AD
:100E200000230025002040F66A16B14200D100BF21
:100E3000C1F3421501F01F03012606FA03F3012D49
:100E400002D19689334006E0022D02D1168A334042
:100E500001E0968A33400C12012606FA04F4168843
:100E6000344013B10CB1012000E0002070BDF0B59A
:100E70000346002400260025002040F66A17B942E8
:100E800000D100BF1846C1F3421401F01F0601272C
:100E900007FA06F5012C01D10C3004E0022C01D137
:100EA000103000E014301AB107682F43076002E0E9
:100EB0000768AF430760F0BD2DE9F04786B00546EF
:100EC0000E460024A24600BFA1460027B08900B10B
:100ED00000BF2F462C8A4CF6FF700440F088044374
:100EE0002C82AC894EF6F3100440B0883189084357
:100EF000718908430443AC81AC8A4FF6FF4004403B
:100F0000B0890443AC8201A8FFF74AFC1F4887421E
:100F100002D1DDF810A001E0DDF80CA0A88900F4F2
:100F2000004040B10AEBCA0000EB0A1031684900EA
:100F3000B0FBF1F807E00AEBCA0000EB0A103168D9
:100F40008900B0FBF1F86420B8FBF0F0040120093F
:100F5000642101FB1089A88900F4004040B13220CF
:100F600000EBC900B0FBF1F000F00700044308E01B
:100F7000322000EB09106421B0FBF1F000F00F000B
:100F800004432C8106B0BDE8F08700000038014022
:100F900001468888C0F308007047C1F308028280C8
:100FA000704710B502460B460020002100BF04E048
:100FB000545C0444E0B24C1CE1B29942F8DB10BD31
:100FC0002DE9F04105460E46144600275A201749E0
:100FD0000870A5204870202088700846C570002041
:100FE00008714C71E01D642804DD00BF00BF0020C3
:100FF000BDE8F0812EB1224631460C48801DFFF736
:1010000095F8A01DC1B20948FFF7CBFF0146A01D0E
:10101000064A1154E01DC1B2104600F059F90746C6
:1010200064210248FFF79BF83846E1E7D801002029
:1010300070B500260025002406E0FFF771FD294663
:101040006A1CD5B2324A5054642D03D200F0E6FA3D
:101050000028F2D0072D00DA70BD4AE02C48005D70
:101060005A2804D0601CC4B200BF00BF41E0284928
:10107000601C085CA52804D0601CC4B200BF00BF7F
:1010800037E02349A01C085C102804D0A01CC4B27F
:1010900000BF00BF2DE01E49601D095C1C4A201DD9
:1010A000105C41EA0020C6B2F01DC6B26B2E02D918
:1010B000E01CC4B21DE0281BB04202DA00BF00BF32
:1010C0001AE0721ED1B2124A1019FFF76AFFA11975
:1010D000491E0F4A515C884204D0E01CC4B200BFD4
:1010E00000BF06E00A490819FFF7DEFAA019C4B2EA
:1010F00000BF281B0728B1DA00BF281BC5B2002D8E
:1011000004DD034801192A46FFF710F800BFA3E7E2
:101110007401002004480549086005490860FF2063
:1011200004490870002070471001002020000020B2
:10113000240000201C0000207CB505460E4600203F
:101140000090019001248DF8005001208DF80100DD
:1011500000208DF802008DF803408DF80460221DF8
:1011600069460720FFF72CFF7CBD7CB505460E467F
:1011700000200090019001248DF8005004208DF88B
:10118000010000208DF802008DF803408DF8046006
:10119000221D69460720FFF713FF7CBD10B5002014
:1011A00003490870002211460420FFF709FF10BD13
:1011B0001D00002010B5002211460220FFF700FF9D
:1011C00010BD00000F4909680F4A1268914208D902
:1011D0000C4909680C4A1268891A642901D300BFB6
:1011E0000FE008490A6809498A4202D36439054A6E
:1011F000116004490968087002490968491C014ADC
:10120000116070472000002024000020740100209D
:1012100008B5002000900B48007838B101200090FC
:10122000012269460020FFF7CBFE09E00020009074
:10123000012004490870012269460020FFF7C0FE22
:1012400008BD00002D00002010B592B0342105A883
:10125000FEF785FF0CA00DA10EA210A3CDE9003270
:10126000CDE902100EA311A211A105A800F04CF8BF
:1012700005A8FEF77FFFC4B2224605A90120FFF7AB
:101280009FFE12B010BD000058584A00666C61679E
:1012900000000000312E302E300000007665720014
:1012A0005932553162784D69000000007069640060
:1012B0007B222573223A222573222C222573223A7F
:1012C000222573222C222573223A222573227D00A7
:1012D00070B504460D4629462046FFF7DFFC002086
:1012E00070BD00BFFEE700000FB4054B10B503A9A9
:1012F000044A029800F02BF810BC5DF814FB0000C3
:10130000C9140008440000200FB4084B10B504A90C
:1013100002AA039800F01BF8044602A9002000F07E
:1013200081F8204610BC5DF814FB0000251400086D
:1013300002E008C8121F08C1002AFAD1704770479E
:10134000002001E001C1121F002AFBD170472DE9E6
:10135000F84F9946924688460546002706E025281C
:101360000AD051464A4690476D1C7F1C28780028B9
:10137000F5D13846BDE8F88F002315F8011F18464F
:101380002E2915D115F8011F04232A290DD06FF03D
:101390002F022978A1F13004092C09D800EB800034
:1013A00002EB400008446D1CF3E758F8040B6D1C79
:1013B0002A78002ADDD0632A07D0732A0FD010467E
:1013C00051464A4690477F1C2AE018F8042B8DF8B6
:1013D000002000218DF801106E46012103E058F82D
:1013E000046B4FF0FF315A074FF0000401D409E0BD
:1013F000641C84420BDA8C42FADB325D002AF7D19E
:1014000005E0641C8C42FCDB305D0028F9D12744E8
:1014100004E016F8010B51464A469047641EF8D284
:101420006D1CA3E70A68531C0B6010707047000026
:1014300000B585B06846FFF7B3F96FF00400FFF719
:10144000E1FA0020FFF725FB07490198B0FBF1F016
:10145000064908704FF4FA510198B0FBF1F00449C5
:10146000088005B000BD000000127A0000000020D6
:101470000200002070B504461148008800FB04F506
:10148000B5F1807F01D36FF07F452846FFF714FB4D
:101490000020FFF7CBFA0120FFF7C8FA00BF1020A9
:1014A000FFF7DFFA07490870084600780128F6D1EF
:1014B000C01EFFF7BBFA0020FFF7B8FA70BD0000AE
:1014C000020000200400002070B504460D46E1B281
:1014D0000548FFF762FD00BF80210348FFF790FC3D
:1014E0000028F9D0204670BD0038014070B505468F
:1014F0000C461AA12068FEF744FE88B919A0FFF730
:10150000F3FE00BF1C48006800F4E0601B4908437C
:10151000001D19490860BFF34F8F00BF00BFFEE7F1
:1015200017A12068FEF72DFE20B9FFF737FE16A0A1
:10153000FFF7DAFE18A12068FEF723FE20B9FFF7B7
:1015400099F917A0FFF7D0FE1BA12068FEF719FE3E
:1015500010B91BA0FFF7C8FE70BD0000726573656F
:101560007400000072656365697665207265736555
:1015700074200D0A000000000CED00E00000FA05E8
:1015800041545F525354000041542B5253543D4F29
:101590004B21200D0A00000041545F5245500000CD
:1015A0007265706F72742064657669636520737408
:1015B00061747573200D0A0041545F50524400005D
:1015C0007265706F72742070726F647563742069D5
:1015D0006E666F200D0A0000FFF7C0FAFFF776FB7A
:1015E000FFF726FFFEF760FEFFF794FDFEF778FF9A
:1015F00004A0FFF779FE04E0FFF71AFD9620FFF73D
:1016000039FFF9E753797374656D207374617274EF
:10161000202E2E2E2E200D0A000000000448006807
:1016200004490968884201D0002070470120FCE786
:101630002000002024000020010102010304040115
:10164000050400404040404040404040414141414D
:101650004140404040404040404040404040404089
:10166000404040050202020202020202020202029D
:10167000020202202020202020202020200202021E
:101680000202020290909090909010101010101092
:101690001010101010101010101010101010020266
:1016A00002020202888888888888080808080808D2
:1016B00008080808080808080808080808080202B6
:1016C000020240004316000873797374656D0000D0
:1016D000F016000800000020480000003013000849
:1016E0003817000848000020F805000040130008E3
:1016F00000000000000000000000000000000000EA
:10170000C8160008ED14000800000000FF000000EB
:1017100000000000000000000000000000000000C9
:101720000000010203040102030406070809020481
:081730000608000000000000A3
:0400000508000101ED
:00000001FF
